:03000000020006F5
:10005F00750807750900750A41750B6D750C657587
:10006F000D72750E69750F6375106175110075123C
:10007F00607513027514007515407516007517001D
:03008F0002000369
:0300030002009266
:100092007E007F00C3EE9508EF64808509F063F06F
:1000A2008095F05021EE2512FBEF3513FCAD14EED6
:1000B200240AF987028B828C838DF0EA1201180ED2
:1000C200BE00D10F80CEE4F518F519C3E5189508E6
:1000D200E51964808509F063F08095F05034E518E5
:1000E2002515FBE5193516FCAD17E5182512FAE5BD
:1000F200193513FEAF148A828E838FF01201338B6F
:10010200828C838DF01201180518E4B518BD05190B
:0601120080B990000022FC
:06003500E478FFF6D8FD9F
:100013007900E94400601B7A00900153780175A0D0
:1000230000E493F2A308B8000205A0D9F4DAF2754C
:02003300A0FF2C
:1001180020F71130F6138883A88220F509F6A88302
:0B0128007583002280FEF280F5F022BB
:10003B007800E84400600A790175A000E4F309D860
:10004B00FC7800E84400600C7900900001E4F0A318
:04005B00D8FCD9FAFA
:0D00060075811912014FE5826003020003AD
:1001330020F71430F6148883A88220F507E6A883F5
:1001430075830022E280F7E49322E0227582002285
:00000001FF
