:03000000020006F5
:03005F0002000399
:0300030002006296
:100062001205111204F690000875F0401200B1E476
:10007200F51CF51DC3E51C9401E51D6480948050B8
:10008200E5E4F51EF51FC3E51E94F0E51F940F503D
:100092000FAE1EAF1F74012EF51EE43FF51F80E662
:1000A200AE1CAF1D74012EF51CE43FF51D80C58505
:1000B200822085832185F022E520452170127582F8
:1000C200011202959000001203B490000002045540
:1000D2007B007C00C3EB940AEC648094805051D284
:1000E200A0E4F523F524F8FAC3E894DCEA94FF507F
:1000F2001520820B3082080523E4B523020524086B
:10010200B800E50A80E2C2A0EB2BF9EC33FAE9254C
:1001120020F9EA3521F8AA22898288838AF0E52328
:100122001205ACA3E5241205AC0BBB00A70C80A4FE
:100132007B007C0079007A00C3E9940AEA940050BB
:100142002CE929F8EA33FFE82520F8EF3521FFAE44
:100152002288828F838EF0120631F8A3120631FFB5
:10016200E82BFBEF3CFC09B900CE0A80CB75270ACD
:100172007528008B828C83120583858227858328CC
:1001820090024B1205C77527F47528011205838565
:1001920082258583267C007D007A007B00C3EA9459
:1001A2000AEB94005054EA2AF8EB33F9E82520F8D8
:1001B200E93521F9AF22888289838FF0120631F85E
:1001C200A3120631F9E8C39525F8E99526F988279F
:1001D200892888828983C005C004C003C002120531
:1001E200C7AE82AF83D002D003D004D005EE2CFC80
:1001F200EF3DFD0ABA00A60B80A375270A752800F9
:100202008C828D83120583120553AF828F27752846
:100212000090024B1205C77527F475280112064D8E
:10022200AE82AF83758201C007C006120295852592
:10023200828526831203B4D006D0078E828F830272
:100242000455D281D280C28122C280C281D280D2A0
:100252008122C280D281D2802081FD22AF827E00A3
:10026200C2808EF005F07C80E4FD3392D28008A239
:10027200D2ED13FDEC13FCD5F0F58F027B00EA52B0
:1002820004EB5205EC4D24FF9281D2800EBE080091
:1002920040CE22AF828F06EEC454F0FE5306F053D6
:1002A20007F0C007C00612024475824E12025E12A7
:1002B2000254D006D007740C4FF582C007C0061254
:1002C200025E12025490000112052FD006D007746C
:1002D200084FF582C00612025E12025490000A1202
:1002E200052FD006740C4EF582C00612025E120271
:1002F2005490000112052FD00674084EF5821202A6
:100302005E12025490000A12052F02024BAF828F36
:1003120006EEC454F0FE5306F05307F0C007C006C1
:1003220012024475824E12025E120254D006D007A7
:10033200740D4FF582C007C00612025E120254907D
:10034200000112052FD006D00774094FF582C006AE
:1003520012025E12025490000A12052FD006740D8A
:100362004EF582C00612025E12025490000112057E
:100372002FD00674094EF58212025E1202549000CA
:100382000A12052F02024BAD82AE83AFF08D828E30
:10039200838FF0120631FC60188C820DBD00010EB5
:1003A200C007C006C00512030FD005D006D00780D3
:1003B200DC22AE82AF83758280C007C0061202952E
:1003C20090068975F080120389D006D0077527E858
:1003D2007528038E828F83C007C006120583AC8204
:1003E20074302CF58212030FD006D007752764757E
:1003F20028008E828F83C007C00612058375270AE4
:100402007528001205E4AC8274302CF58212030FB9
:10041200D006D00775270A7528008E828F83C00701
:10042200C00612058375270A7528001205E4AC82FE
:1004320074302CF58212030FD006D00775270A7587
:1004420028008E828F831205E4AE8274302EF582EC
:1004520002030FAE82AF837582C0C007C0061202CC
:100462009590068F75F080120389D006D007752704
:10047200E87528038E828F83C007C006120583ACFD
:100482008274302CF58212030FD006D007752764D0
:100492007528008E828F83C007C0061205837527D8
:1004A2000A7528001205E4AC8274302CF58212031E
:1004B2000FD006D00775270A7528008E828F83C059
:1004C20007C00612058375270A7528001205E4ACD9
:1004D2008274302CF58212030FD006D00775270ADA
:1004E2007528008E828F831205E4AE8274302EF559
:1004F2008202030F75828012029590069475F08035
:100502001203899007D012052F7582010202957598
:10051200820212029575822812029575820C1202CD
:1005220095758206120295758201020295AE82AF1E
:10053200837C007D00C3EC9EED9F50147A797B0092
:100542001ABAFF011BEA4B70F70CBC00E80D80E5FC
:1005520022AE82AF837D807C80EDF5F0A4FAABF011
:10056200B50606EBB507028015C3EE9AEF9B500362
:10057200EC6205ECC313FC6005EC420580DB8D8266
:010582002256
:1006890052504D3A200053443A2000546163686F38
:060699006D65746572003E
:100583007A10E4FBFCE58225E0F582E58333F5830D
:10059300EB33FBEC33FCEB9527F5F0EC95284006A9
:0905A300FCABF0438201DADD2219
:06003500E478FFF6D8FD9F
:100013007900E94400601B7A0090069F780175A07F
:1000230000E493F2A308B8000205A0D9F4DAF2754C
:02003300A0FF2C
:1005AC0020F71130F6138883A88220F509F6A8836A
:1005BC007583002280FEF280F5F022E5828527F01B
:1005CC00A4C582C0F08528F0A4D0F025F0C58385A1
:1005DC0027F0A42583F58322E527452860467A0178
:1005EC00E52725E0F527E528334012F528E5829527
:1005FC0027E583952840030A80E6C3E52813F528F0
:10060C00E52713F527C3E5829527F5F0E5839528B3
:10061C004005F58385F082C3E52813F528E52713FB
:05062C00F527DAE122D0
:10003B007800E84400600A790175A000E4F309D860
:10004B00FC7800E84400600C7900900001E4F0A318
:04005B00D8FCD9FAFA
:0D000600758128120685E582600302000363
:1006310020F71430F6148883A88220F507E6A883F2
:1006410075830022E280F7E49322E022C2D5E5839C
:1006510030E70DD2D5E4C39582F582E49583F58325
:10066100E52830E70DB2D5E4C39527F527E49528B1
:10067100F52812058330D50BE4C39582F582E49504
:0806810083F58322758200223B
:00000001FF
