:03000000020006F5
:10005F00E4F508F509F50AF50BF50CF50DF50EF5B8
:08006F000FF510F5110200036A
:0300030002007781
:100077001202EB1202D07F01D2A07D007E007BDC52
:100087007CFFEF601A2082083082050DBD00010E4B
:10009700EB4C60071BBBFF011C80E77F0080E3C2BE
:1000A700A0758201C006C005120110D005D0068DCB
:1000B700828E8312022F80BED281D280C28122C259
:1000C70080C281D280D28122C280D281D280208117
:1000D700FD22AF827E00C2808EF005F07C80E4FDB9
:1000E7003392D28008A2D2ED13FDEC13FCD5F0F5C4
:1000F7008F027B00EA5204EB5205EC4D24FF9281FC
:10010700D2800EBE080040CE22AF828F06EEC454C6
:10011700F0FE5306F05307F0C007C0061200BF7584
:10012700824E1200D91200CFD006D007740C4FF5BB
:1001370082C007C0061200D91200CF900001120337
:1001470009D006D00774084FF582C0061200D912ED
:1001570000CF90000A120309D006740C4EF582C036
:10016700061200D91200CF900001120309D00674BD
:10017700084EF5821200D91200CF90000A12030927
:100187000200C6AF828F06EEC454F0FE5306F0534A
:1001970007F0C007C0061200BF75824E1200D912C1
:1001A70000CFD006D007740D4FF582C007C00612E6
:1001B70000D91200CF900001120309D006D00774AE
:1001C700094FF582C0061200D91200CF90000A121B
:1001D7000309D006740D4EF582C0061200D912002D
:1001E700CF900001120309D00674094EF582120060
:1001F700D91200CF90000A1203090200C6AD82AEE1
:1002070083AFF08D828E838FF01203A3FC60188C6E
:10021700820DBD00010EC007C006C00512018AD0BD
:1002270005D006D00780DC22AE82AF83758280C0FE
:1002370007C0061201109003C375F080120204D0A4
:1002470006D0077512E87513038E828F83C007C027
:100257000612032DAC8274302CF58212018AD00667
:10026700D0077512647513008E828F83C007C0068E
:1002770012032D75120A751300120356AC827430DF
:100287002CF58212018AD006D00775120A75130061
:100297008E828F83C007C00612032D75120A75134D
:1002A70000120356AC8274302CF58212018AD006F4
:1002B700D00775120A7513008E828F83120356AE0C
:1002C7008274302EF58202018A75828012011090A5
:1002D70003C975F0801202049007D01203097582D2
:1002E7000102011075820212011075822812011095
:1002F70075820C12011075820612011075820102B7
:100307000110AE82AF837C007D00C3EC9EED9F5051
:10031700147A797B001ABAFF011BEA4B70F70CBC01
:0603270000E80D80E52254
:1003C30052504D3A2000546163686F6D65746572D5
:0103D3000029
:10032D007A10E4FBFCE58225E0F582E58333F58365
:10033D00EB33FBEC33FCEB9512F5F0EC951340062B
:09034D00FCABF0438201DADD2271
:06003500E478FFF6D8FD9F
:100013007900E94400601B7A009003D4780175A04D
:1000230000E493F2A308B8000205A0D9F4DAF2754C
:02003300A0FF2C
:10035600E512451360467A01E51225E0F512E5132C
:10036600334012F513E5829512E583951340030A8F
:1003760080E6C3E51313F513E51213F512C3E58200
:100386009512F5F0E58395134005F58385F082C354
:0D039600E51313F513E51213F512DAE12259
:10003B007800E84400600A790175A000E4F309D860
:10004B00FC7800E84400600C7900900001E4F0A318
:04005B00D8FCD9FAFA
:0D0006007581131203BFE582600302000341
:1003A30020F71430F6148883A88220F507E6A88383
:1003B30075830022E280F7E49322E0227582002213
:00000001FF
