:03000000020006F5
:10005F00E4F508F509F50AF50BF50CF50DF50EF5B8
:08006F000FF510F5110200036A
:0300030002007781
:100077001203131202F87E007F007C007D00D2A0DD
:100087007B00BB010050408C148D158E128F1378A6
:10009700007A00C3E894DCEA94FF501F20820D30F9
:1000A70082120512E4B5120C051380080514E4B595
:1000B7001402051508B800DB0A80D8AC14AD15AEDC
:1000C70012AF137B0180BBC2A0758201C007C006B7
:1000D700120138D006D0078E828F8312025780967E
:1000E700D281D280C28122C280C281D280D28122B3
:1000F700C280D281D2802081FD22AF827E00C28061
:100107008EF005F07C80E4FD3392D28008A2D2ED18
:1001170013FDEC13FCD5F0F58F027B00EA5204EBDC
:100127005205EC4D24FF9281D2800EBE080040CECE
:1001370022AF828F06EEC454F0FE5306F05307F049
:10014700C007C0061200E775824E1201011200F7C0
:10015700D006D007740C4FF582C007C00612010104
:100167001200F7900001120331D006D00774084F30
:10017700F582C0061201011200F790000A1203313E
:10018700D006740C4EF582C0061201011200F790DA
:100197000001120331D00674084EF58212010112D4
:1001A70000F790000A1203310200EEAF828F06EECD
:1001B700C454F0FE5306F05307F0C007C006120000
:1001C700E775824E1201011200F7D006D007740DB1
:1001D7004FF582C007C0061201011200F790000117
:1001E700120331D006D00774094FF582C0061201F9
:1001F700011200F790000A120331D006740D4EF574
:1002070082C0061201011200F7900001120331D0DB
:100217000674094EF5821201011200F790000A12C6
:1002270003310200EEAD82AE83AFF08D828E838FF5
:10023700F01203CBFC60188C820DBD00010EC007C5
:10024700C006C0051201B2D005D006D00780DC2257
:10025700AE82AF83758280C007C006120138900353
:10026700EB75F08012022CD006D0077516E87517CB
:10027700038E828F83C007C006120355AC82743089
:100287002CF5821201B2D006D007751664751700D7
:100297008E828F83C007C00612035575160A75171D
:1002A7000012037EAC8274302CF5821201B2D006A4
:1002B700D00775160A7517008E828F83C007C00690
:1002C70012035575160A75170012037EAC82743037
:1002D7002CF5821201B2D006D00775160A751700E1
:1002E7008E828F8312037EAE8274302EF5820201D6
:1002F700B27582801201389003F175F08012022CDA
:100307009007D012033175820102013875820212FB
:10031700013875822812013875820C1201387582EE
:1003270006120138758201020138AE82AF837C0064
:100337007D00C3EC9EED9F50147A797B001ABAFFBB
:0E034700011BEA4B70F70CBC00E80D80E522AC
:1003EB0052504D3A2000546163686F6D65746572AD
:0103FB000001
:100355007A10E4FBFCE58225E0F582E58333F5833D
:10036500EB33FBEC33FCEB9516F5F0EC95174006FB
:09037500FCABF0438201DADD2249
:06003500E478FFF6D8FD9F
:100013007900E94400601B7A009003FC780175A025
:1000230000E493F2A308B8000205A0D9F4DAF2754C
:02003300A0FF2C
:10037E00E516451760467A01E51625E0F516E517F0
:10038E00334012F517E5829516E583951740030A5B
:10039E0080E6C3E51713F517E51613F516C3E582C8
:1003AE009516F5F0E58395174005F58385F082C324
:0D03BE00E51713F517E51613F516DAE12221
:10003B007800E84400600A790175A000E4F309D860
:10004B00FC7800E84400600C7900900001E4F0A318
:04005B00D8FCD9FAFA
:0D0006007581171203E7E582600302000315
:1003CB0020F71430F6148883A88220F507E6A8835B
:1003DB0075830022E280F7E49322E02275820022EB
:00000001FF
