:03000000020006F5
:10005F00E4F508F509F50AF50BF50CF50DF50EF5B8
:08006F000FF510F5110200036A
:0300030002007781
:100077001202E21202C7D2A07E007F007CDC7DFF65
:10008700EC4D60122082083082050EBE00010F1C65
:10009700BCFF011D80EAC2A0758201C007C006121D
:1000A7000107D006D0078E828F8312022680C7D21F
:1000B70081D280C28122C280C281D280D28122C2F3
:1000C70080D281D2802081FD22AF827E00C2808EC5
:1000D700F005F07C80E4FD3392D28008A2D2ED13C4
:1000E700FDEC13FCD5F0F58F027B00EA5204EB52CE
:1000F70005EC4D24FF9281D2800EBE080040CE222F
:10010700AF828F06EEC454F0FE5306F05307F0C0DB
:1001170007C0061200B675824E1200D01200C6D074
:1001270006D007740C4FF582C007C0061200D01224
:1001370000C6900001120300D006D00774084FF5DF
:1001470082C0061200D01200C690000A120300D027
:1001570006740C4EF582C0061200D01200C690003D
:1001670001120300D00674084EF5821200D0120067
:10017700C690000A1203000200BDAF828F06EEC4CC
:1001870054F0FE5306F05307F0C007C0061200B63E
:1001970075824E1200D01200C6D006D007740D4FDC
:1001A700F582C007C0061200D01200C690000112E7
:1001B7000300D006D00774094FF582C0061200D09D
:1001C7001200C690000A120300D006740D4EF58285
:1001D700C0061200D01200C6900001120300D0061C
:1001E70074094EF5821200D01200C690000A12035D
:1001F700000200BDAD82AE83AFF08D828E838FF09B
:1002070012039AFC60188C820DBD00010EC007C056
:1002170006C005120181D005D006D00780DC22AECA
:1002270082AF83758280C007C0061201079003BAA8
:1002370075F0801201FBD006D0077512E87513031D
:100247008E828F83C007C006120324AC8274302CC1
:10025700F582120181D006D0077512647513008EDE
:10026700828F83C007C00612032475120A75130014
:1002770012034DAC8274302CF582120181D006D066
:100287000775120A7513008E828F83C007C0061286
:10029700032475120A75130012034DAC8274302CB7
:1002A700F582120181D006D00775120A7513008EE8
:1002B700828F8312034DAE8274302EF58202018144
:1002C7007582801201079003C075F0801201FB90C0
:1002D70007D012030075820102010775820212011D
:1002E7000775822812010775820C120107758206AD
:1002F700120107758201020107AE82AF837C007D80
:1003070000C3EC9EED9F50147A797B001ABAFF0167
:0D0317001BEA4B70F70CBC00E80D80E522DE
:1003BA0052504D3A2000546163686F6D65746572DE
:0103CA000032
:100324007A10E4FBFCE58225E0F582E58333F5836E
:10033400EB33FBEC33FCEB9512F5F0EC9513400634
:09034400FCABF0438201DADD227A
:06003500E478FFF6D8FD9F
:100013007900E94400601B7A009003CB780175A056
:1000230000E493F2A308B8000205A0D9F4DAF2754C
:02003300A0FF2C
:10034D00E512451360467A01E51225E0F512E51335
:10035D00334012F513E5829512E583951340030A98
:10036D0080E6C3E51313F513E51213F512C3E58209
:10037D009512F5F0E58395134005F58385F082C35D
:0D038D00E51313F513E51213F512DAE12262
:10003B007800E84400600A790175A000E4F309D860
:10004B00FC7800E84400600C7900900001E4F0A318
:04005B00D8FCD9FAFA
:0D0006007581131203B6E58260030200034A
:10039A0020F71430F6148883A88220F507E6A8838C
:1003AA0075830022E280F7E49322E022758200221C
:00000001FF
