:03000000020006F5
:10005F00E4F508F509F50AF50BF50CF50DF50EF5B8
:08006F000FF510F5110200036A
:0300030002007781
:1000770012054312052890001275F0401200C6E4DD
:10008700F526F527C3E5269401E52764809480507B
:10009700E5E4F528F529C3E52894F0E529940F5000
:1000A7000FAE28AF2974012EF528E43FF52980E625
:1000B700AE26AF2774012EF526E43FF52780C585C8
:1000C700822A85832B85F02CE52A452B70127582B1
:1000D700011202C79000001203E690000002048795
:1000E700E4F52DF52EC3E52D940AE52E6480948062
:1000F700400302018FE4F52FF530F531F532D2A038
:10010700E4F533F534C3E53394BCE534942F504715
:10011700A931AC32852F378530387A007B00C3EAA6
:1001270094DCEB94FF501C20820D30820F0537E4DE
:10013700B537090538800509B900010C0ABA00DE90
:100147000B80DB89318C3285372F8538300533E4D6
:10015700B533B2053480AEC2A0E52D252DFBE52EC3
:1001670033FCEB252AFBEC352BFCAA2C8B828C83EA
:100177008AF0E52F1205DEA3E5301205DE052DE432
:10018700B52D02052E0200EC7B007C0079007A0079
:10019700C3E9940AEA9400502CE929F8EA33FFE806
:1001A700252AF8EF352BFFAE2C88828F838EF0122D
:1001B7000663F8A3120663FFE82BFBEF3CFC09B9C3
:1001C70000CE0A80CB75390A753A008B828C831270
:1001D70005B58582358583367C007D007A007B00F6
:1001E700C3EA940AEB94005054EA2AF8EB33F9E88F
:1001F700252AF8E9352BF9AF2C888289838FF012ED
:100207000663F8A3120663F9E8C39535F8E995364E
:10021700F98839893A88828983C005C004C003C038
:10022700021205F9AE82AF83D002D003D004D00505
:10023700EE2CFCEF3DFD0ABA00A60B80A375390A28
:10024700753A008C828D831205B5120585AF827EC3
:1002570000758201C007C0061202C7853582853640
:10026700831203E6D006D0078F828E83020487D2DB
:1002770081D280C28122C280C281D280D28122C231
:1002870080D281D2802081FD22AF827E00C2808E03
:10029700F005F07C80E4FD3392D28008A2D2ED1302
:1002A700FDEC13FCD5F0F58F027B00EA5204EB520C
:1002B70005EC4D24FF9281D2800EBE080040CE226D
:1002C700AF828F06EEC454F0FE5306F05307F0C01A
:1002D70007C00612027675824E120290120286D06D
:1002E70006D007740C4FF582C007C00612029012A1
:1002F7000286900001120561D006D00774084FF5F9
:1003070082C00612029012028690000A120561D07E
:1003170006740C4EF582C0061202901202869000F7
:1003270001120561D00674084EF58212029012027E
:100337008690000A12056102027DAF828F06EEC425
:1003470054F0FE5306F05307F0C007C006120276BA
:1003570075824E120290120286D006D007740D4F96
:10036700F582C007C00612029012028690000112A1
:100377000561D006D00774094FF582C006120290B6
:1003870012028690000A120561D006740D4EF5829E
:10039700C006120290120286900001120561D00673
:1003A70074094EF58212029012028690000A120515
:1003B7006102027DAD82AE83AFF08D828E838FF0B6
:1003C700120663FC60188C820DBD00010EC007C0C9
:1003D70006C005120341D005D006D00780DC22AE47
:1003E70082AF83758280C007C0061202C79006835A
:1003F70075F0801203BBD006D0077539E8753A034C
:100407008E828F83C007C0061205B5AC8274302C6C
:10041700F582120341D006D007753964753A008E0C
:10042700828F83C007C0061205B575390A753A0071
:10043700120616AC8274302CF582120341D006D016
:100447000775390A753A008E828F83C007C0061276
:1004570005B575390A753A00120616AC8274302C48
:10046700F582120341D006D00775390A753A008E16
:10047700828F83120616AE8274302EF582020341F4
:10048700AE82AF837582C0C007C0061202C790064E
:100497008975F0801203BBD006D0077539E8753A25
:1004A700038E828F83C007C0061205B5AC827430F5
:1004B7002CF582120341D006D007753964753A00CE
:1004C7008E828F83C007C0061205B575390A753A43
:1004D70000120616AC8274302CF582120341D00646
:1004E700D00775390A753A008E828F83C007C00618
:1004F7001205B575390A753A00120616AC827430C2
:100507002CF582120341D006D00775390A753A00D7
:100517008E828F83120616AE8274302EF582020306
:10052700417582801202C790068E75F0801203BB58
:100537009007D01205617582010202C77582021207
:1005470002C77582281202C775820C1202C775820C
:10055700061202C77582010202C7AE82AF837C0012
:100567007D00C3EC9EED9F50147A797B001ABAFF89
:10057700011BEA4B70F70CBC00E80D80E522AE8248
:10058700AF837D807C80EDF5F0A4FAABF0B506066D
:10059700EBB507028015C3EE9AEF9B5003EC62059B
:0E05A700ECC313FC6005EC420580DB8D822264
:1006830052504D3A200053443A2000546163686F3E
:060693006D657465720044
:1005B5007A10E4FBFCE58225E0F582E58333F583DB
:1005C500EB33FBEC33FCEB9539F5F0EC953A400653
:0905D500FCABF0438201DADD22E7
:06003500E478FFF6D8FD9F
:100013007900E94400601B7A00900699780175A085
:1000230000E493F2A308B8000205A0D9F4DAF2754C
:02003300A0FF2C
:1005DE0020F71130F6138883A88220F509F6A88338
:1005EE007583002280FEF280F5F022E5828539F0D7
:1005FE00A4C582C0F0853AF0A4D0F025F0C583855D
:10060E0039F0A42583F58322E539453A60467A010F
:10061E00E53925E0F539E53A334012F53AE58295AC
:10062E0039E583953A40030A80E6C3E53A13F53A75
:10063E00E53913F539C3E5829539F5F0E583953A39
:10064E004005F58385F082C3E53A13F53AE5391393
:05065E00F539DAE1228C
:10003B007800E84400600A790175A000E4F309D860
:10004B00FC7800E84400600C7900900001E4F0A318
:04005B00D8FCD9FAFA
:0D00060075813A12067FE582600302000357
:1006630020F71430F6148883A88220F507E6A883C0
:1006730075830022E280F7E49322E0227582002250
:00000001FF
