:03000000020006F5
:10005F00E4F508F509F50AF50BF50CF50DF50EF5B8
:08006F000FF510F5110200036A
:0300030002007781
:1000770012035312033875820112017890000A1295
:1000870000CC120297E4F512F513C3E5129401E5CB
:10009700136480948050DFE4F514F515C3E51494D8
:1000A700FFE5159400500FAE14AF1574012EF5142B
:1000B700E43FF51580E6AE12AF1374012EF512E496
:1000C7003FF51380C5AE82AF83E4F516F517FAFB4B
:1000D7008A008B01C3E89EE99F5038D2A078007947
:1000E700007C007D00C3EC94DCED94FF501220826D
:1000F7000830820508B80001090CBC00E80D80E54E
:10010700C2A0E82516F516E93517F5170ABA00C093
:100117000B80BD8E188F198516828517830203956C
:10012700D281D280C28122C280C281D280D2812272
:10013700C280D281D2802081FD22AF827E00C28020
:100147008EF005F07C80E4FD3392D28008A2D2EDD8
:1001570013FDEC13FCD5F0F58F027B00EA5204EB9C
:100167005205EC4D24FF9281D2800EBE080040CE8E
:1001770022AF828F06EEC454F0FE5306F05307F009
:10018700C007C00612012775824E120141120137BE
:10019700D006D007740C4FF582C007C00612014184
:1001A700120137900001120371D006D00774084F6F
:1001B700F582C00612014112013790000A1203713D
:1001C700D006740C4EF582C0061201411201379019
:1001D7000001120371D00674084EF5821201411214
:1001E700013790000A12037102012EAF828F06EECB
:1001F700C454F0FE5306F05307F0C007C0061201BF
:100207002775824E120141120137D006D007740DAF
:100217004FF582C007C00612014112013790000155
:10022700120371D006D00774094FF582C006120178
:100237004112013790000A120371D006740D4EF572
:1002470082C006120141120137900001120371D0DA
:100257000674094EF58212014112013790000A1205
:10026700037102012EAD82AE83AFF08D828E838F34
:10027700F012040BFC60188C820DBD00010EC00744
:10028700C006C0051201F2D005D006D00780DC22D7
:10029700AE82AF83758280C007C0061201789004D2
:1002A7002B75F08012026CD006D0077518E8751907
:1002B700038E828F83C007C006120395AC82743009
:1002C7002CF5821201F2D006D00775186475190053
:1002D7008E828F83C007C00612039575180A751999
:1002E700001203BEAC8274302CF5821201F2D006E4
:1002F700D00775180A7519008E828F83C007C0064C
:1003070012039575180A7519001203BEAC82743072
:100317002CF5821201F2D006D00775180A7519005C
:100327008E828F831203BEAE8274302EF582020155
:10033700F275828012017890043175F08012026C98
:100347009007D0120371758201020178758202123B
:10035700017875822812017875820C1201787582EE
:1003670006120178758201020178AE82AF837C00A4
:100377007D00C3EC9EED9F50147A797B001ABAFF7B
:0E038700011BEA4B70F70CBC00E80D80E5226C
:10042B0052504D3A2000546163686F6D657465726C
:01043B0000C0
:100395007A10E4FBFCE58225E0F582E58333F583FD
:1003A500EB33FBEC33FCEB9518F5F0EC95194006B7
:0903B500FCABF0438201DADD2209
:06003500E478FFF6D8FD9F
:100013007900E94400601B7A0090043C780175A0E4
:1000230000E493F2A308B8000205A0D9F4DAF2754C
:02003300A0FF2C
:1003BE00E518451960467A01E51825E0F518E519A6
:1003CE00334012F519E5829518E583951940030A15
:1003DE0080E6C3E51913F519E51813F518C3E58280
:1003EE009518F5F0E58395194005F58385F082C3E0
:0D03FE00E51913F519E51813F518DAE122D9
:10003B007800E84400600A790175A000E4F309D860
:10004B00FC7800E84400600C7900900001E4F0A318
:04005B00D8FCD9FAFA
:0D000600758119120427E5826003020003D2
:10040B0020F71430F6148883A88220F507E6A8831A
:10041B0075830022E280F7E49322E02275820022AA
:00000001FF
