:03000000020006F5
:10005F00E4F508F509F50AF50BF50CF50DF50EF5B8
:08006F000FF510F5110200036A
:0300030002007781
:1000770012036512034A90000A1200DEAE82AF83B4
:10008700E4F512F513C3E5129401E5136480948037
:10009700502EE4F514F515C3E51494FFE515940007
:1000A700500FAC14AD1574012CF514E43DF5158013
:1000B700E6AC12AD1374012CF512E43DF51380C5BF
:1000C700758201C007C00612018AD006D0078E824A
:1000D7008F831202A9809FAE82AF83E4F516F517CE
:1000E700FAFB8A008B01C3E89EE99F5038D2A078BB
:1000F7000079007C007D00C3EC94DCED94FF501286
:1001070020820830820508B80001090CBC00E80D00
:1001170080E5C2A0E82516F516E93517F5170ABADE
:1001270000C00B80BD8E188F198516828517830234
:1001370003A7D281D280C28122C280C281D280D25B
:100147008122C280D281D2802081FD22AF827E00AF
:10015700C2808EF005F07C80E4FD3392D28008A245
:10016700D2ED13FDEC13FCD5F0F58F027B00EA52BC
:1001770004EB5205EC4D24FF9281D2800EBE08009D
:1001870040CE22AF828F06EEC454F0FE5306F053E2
:1001970007F0C007C00612013975824E12015312CB
:1001A7000149D006D007740C4FF582C007C006126C
:1001B7000153120149900001120383D006D007743E
:1001C700084FF582C00612015312014990000A1226
:1001D7000383D006740C4EF582C006120153120138
:1001E70049900001120383D00674084EF58212016C
:1001F7005312014990000A120383020140AF828F14
:1002070006EEC454F0FE5306F05307F0C007C006CD
:1002170012013975824E120153120149D006D007D7
:10022700740D4FF582C007C00612015312014990A1
:100237000001120383D006D00774094FF582C00668
:1002470012015312014990000A120383D006740D5C
:100257004EF582C0061201531201499000011203A4
:1002670083D00674094EF58212015312014990009A
:100277000A120383020140AD82AE83AFF08D828EF6
:10028700838FF012041DFC60188C820DBD00010ED7
:10029700C007C006C005120204D005D006D00780EB
:1002A700DC22AE82AF83758280C007C00612018A46
:1002B70090043D75F08012027ED006D0077518E8CD
:1002C7007519038E828F83C007C0061203A7AC82FD
:1002D70074302CF582120204D006D00775186475A5
:1002E70019008E828F83C007C0061203A775180AEC
:1002F7007519001203D0AC8274302CF582120204F7
:10030700D006D00775180A7519008E828F83C0072B
:10031700C0061203A775180A7519001203D0AC821C
:1003270074302CF582120204D006D00775180A75AE
:1003370019008E828F831203D0AE8274302EF5821D
:1003470002020475828012018A90044375F08012BC
:10035700027E9007D012038375820102018A75829B
:100367000212018A75822812018A75820C12018A8B
:1003770075820612018A75820102018AAE82AF83F5
:100387007C007D00C3EC9EED9F50147A797B001AA8
:10039700BAFF011BEA4B70F70CBC00E80D80E522A1
:10043D0052504D3A2000546163686F6D657465725A
:01044D0000AE
:1003A7007A10E4FBFCE58225E0F582E58333F583EB
:1003B700EB33FBEC33FCEB9518F5F0EC95194006A5
:0903C700FCABF0438201DADD22F7
:06003500E478FFF6D8FD9F
:100013007900E94400601B7A0090044E780175A0D2
:1000230000E493F2A308B8000205A0D9F4DAF2754C
:02003300A0FF2C
:1003D000E518451960467A01E51825E0F518E51994
:1003E000334012F519E5829518E583951940030A03
:1003F00080E6C3E51913F519E51813F518C3E5826E
:100400009518F5F0E58395194005F58385F082C3CD
:0D041000E51913F519E51813F518DAE122C6
:10003B007800E84400600A790175A000E4F309D860
:10004B00FC7800E84400600C7900900001E4F0A318
:04005B00D8FCD9FAFA
:0D000600758119120439E5826003020003C0
:10041D0020F71430F6148883A88220F507E6A88308
:10042D0075830022E280F7E49322E0227582002298
:00000001FF
