:03000000020006F5
:10005F00E4F508F509F50AF50BF50CF50DF50EF5B8
:08006F000FF510F5110200036A
:0300030002007781
:1000770012052412050990000A1200C3E4F512F5CF
:1000870013C3E5129401E5136480948050E8E4F506
:1000970014F515C3E51494F0E515940F500FAE143D
:1000A700AF1574012EF514E43FF51580E6AE12AFD7
:1000B7001374012EF512E43FF51380C5AE82AF83AA
:1000C700EE2EF582EF33F583C007C006120707ACA3
:1000D70082AD83D006D0078C168D17751800E516EC
:1000E7004517700122E4F519F51AA819AA1AC3E8E9
:1000F7009EEA9F5057D2A0E4F51BF51CF8FAC3E817
:1001070094DCEA94FF501520820B308208051BE42B
:10011700B51B02051C08B800E50A80E2C2A0E51974
:100127002519F9E51A33FAE92516F9EA3517F8AA70
:1001370018898288838AF0E51B1206B0A3E51C1292
:1001470006B00519E4B519A2051A809EE4F9FAF577
:100157001FF520C3E51F9EE5209F5032E51F251F91
:10016700FBE52033FCEB2516FBEC3517FCAD188BB4
:10017700828C838DF0120894FBA3120894FCEB2960
:10018700F9EC3AFA051FE4B51FC9052080C58E2B87
:100197008F2C89828A83C007C00612068785821D35
:1001A70085831ED006D007E4FAFBF521F522C3E5C7
:1001B700219EE5229F505AE5212521FCE52233FDAA
:1001C700EC2516FCED3517F9AD188C8289838DF077
:1001D700120894FCA3120894F9ECC3951DFCE99549
:1001E7001EF98C2B892C8C828983C007C006C0031B
:1001F700C00212082AAC82AD83D002D003D006D049
:1002070007EC2AFAED3BFB0521E4B521A105228085
:100217009D8E2B8F2C8A828B83120687120566AFE1
:10022700827E00758201C007C0061202A8851D8262
:10023700851E831203C7D006D0078F828E831204D0
:1002470068AB16AC17AD188B828C838DF0020596C0
:10025700D281D280C28122C280C281D280D2812241
:10026700C280D281D2802081FD22AF827E00C280EF
:100277008EF005F07C80E4FD3392D28008A2D2EDA7
:1002870013FDEC13FCD5F0F58F027B00EA5204EB6B
:100297005205EC4D24FF9281D2800EBE080040CE5D
:1002A70022AF828F06EEC454F0FE5306F05307F0D8
:1002B700C007C00612025775824E120271120267FA
:1002C700D006D007740C4FF582C007C00612027122
:1002D700120267900001120542D006D00774084F3A
:1002E700F582C00612027112026790000A120542D7
:1002F700D006740C4EF582C0061202711202679086
:100307000001120542D00674084EF58212027112DE
:10031700026790000A12054202025EAF828F06EE64
:10032700C454F0FE5306F05307F0C007C00612028C
:100337005775824E120271120267D006D007740DEC
:100347004FF582C007C006120271120267900001C2
:10035700120542D006D00774094FF582C006120273
:100367007112026790000A120542D006740D4EF50D
:1003770082C006120271120267900001120542D074
:100387000674094EF58212027112026790000A1272
:10039700054202025EAD82AE83AFF08D828E838FFF
:1003A700F0120894FC60188C820DBD00010EC00786
:1003B700C006C005120322D005D006D00780DC2274
:1003C700AE82AF83758280C007C0061202A890086C
:1003D700B475F08012039CD006D007752BE8752CF6
:1003E700038E828F83C007C006120687AC827430E3
:1003F7002CF582120322D006D007752B64752C00CA
:100407008E828F83C007C006120687752B0A752C4C
:1004170000120847AC8274302CF582120322D006F2
:10042700D007752B0A752C008E828F83C007C006F4
:10043700120687752B0A752C00120847AC82743098
:100447002CF582120322D006D007752B0A752C00D3
:100457008E828F83120847AE8274302EF582020394
:1004670022AE82AF837582C0C007C0061202A89071
:1004770008BA75F08012039CD006D007752BE87573
:100487002C038E828F83C007C006120687AC827446
:10049700302CF582120322D006D007752B64752CF9
:1004A700008E828F83C007C006120687752B0A75D8
:1004B7002C00120847AC8274302CF582120322D02C
:1004C70006D007752B0A752C008E828F83C007C054
:1004D70006120687752B0A752C00120847AC827422
:1004E700302CF582120322D006D007752B0A752C03
:1004F700008E828F83120847AE8274302EF58202F7
:1005070003227582801202A89008BF75F08012033B
:100517009C9007D01205427582010202A8758202DB
:100527001202A87582281202A875820C1202A875F9
:1005370082061202A87582010202A8AE82AF837CEE
:10054700007D00C3EC9EED9F50147A797B001ABAA8
:10055700FF011BEA4B70F70CBC00E80D80E522AEEB
:1005670082AF837D807C80EDF5F0A4FAABF0B50611
:1005770006EBB507028015C3EE9AEF9B5003EC62BA
:0F05870005ECC313FC6005EC420580DB8D82227E
:1008B40052504D3A200053443A2000546163686F0B
:0608C4006D657465720011
:10059600AD82AE83ED4E700122E4F52BF52C900072
:1005A60001E0F9A3E0FA752D01752E00E94A6025F0
:1005B6008D008E04C3E998EA9C501A892B8A2C7404
:1005C6000229FBE43AFC8B2D8C2E8B828C83E0F97E
:1005D600A3E0FA80D7ED24FEFDEE34FFFE74022D73
:1005E600FCE43EFF8C828F83E9F0EAA3F0852D823E
:1005F600852E83EDF0EEA3F08D828E83E0F8A3E0E6
:10060600FBE9B50033EAB5032F88828B83A3A3E009
:10061600FAA3E0FB8C828F83EAF0EBA3F08D828E47
:1006260083E0FAA3E0FB8A828B83E0FAA3E0FB8DEA
:10063600828E83EAF0EBA3F0E52B452C6042852BF6
:1006460082852C83E0FAA3E0FBEAB50533EBB50619
:100656002F8D828E83E0FDA3E0FE852B82852C8381
:10066600EDF0EEA3F07402252BFDE4352CFE8C8212
:100676008F83E0FCA3E0FF8D828E83ECF0EFA3F086
:10068600227A10E4FBFCE58225E0F582E58333F56A
:1006960083EB33FBEC33FCEB952BF5F0EC952C4020
:0A06A60006FCABF0438201DADD220E
:06003500E478FFF6D8FD9F
:100013007900E94400601B7A009008CC780375A04E
:1000230004E493F2A308B8000205A0D9F4DAF27548
:02003300A0FF2C
:1006B00020F71130F6138883A88220F509F6A88365
:1006C0007583002280FEF280F5F022900001740311
:1006D000F07400A3F09008CAE493FE740193FF1E27
:1006E000BEFF011FEE2403FEEF3400FF900003EE77
:1006F000F0EFA3F0900001E0FEA3E0FF8E828F8375
:10070000A3A3E4F0A3F022AE82AF83900001E0F552
:10071000F0A3E045F0700BC007C0061206CBD00670
:10072000D007EE4F600E74022EFCE43FFDC3EC9E3A
:10073000ED9F50049000002274022EF523E43FF553
:1007400024C3E5239404E52494005006752304751E
:100750002400900001E0FCA3E0FD7A017B00EC4D59
:1007600070030208268C828D83E0F8A3E0F98806E6
:1007700089078C298D2AEEC39529F525EF952AF551
:1007800026C3E5259523E5269524500302080F741A
:10079000042523FEE43524FFC3E5259EE5269F407E
:1007A0004EE5232529FEE524352AFF8E278F28854F
:1007B0002782852883E8F0E9A3F074022527F8E46E
:1007C0003528F98C828D83A3A3E0FEA3E0FF888205
:1007D0008983EEF0EFA3F08A828B83E527F0E5288A
:1007E000A3F08C828D83E527F0E528A3F080148C9C
:1007F000828D83A3A3E0FEA3E0FF8A828B83EEF0C9
:10080000EFA3F074022CFEE43DFF8E828F832274EE
:10081000022CFEE43DFF8E028F038E828F83E0FC6C
:10082000A3E0FD02075E90000022E582852BF0A484
:10083000C582C0F0852CF0A4D0F025F0C583852BAF
:10084000F0A42583F58322E52B452C60467A01E54B
:100850002B25E0F52BE52C334012F52CE582952B6A
:10086000E583952C40030A80E6C3E52C13F52CE5BF
:100870002B13F52BC3E582952BF5F0E583952C40E2
:1008800005F58385F082C3E52C13F52CE52B13F5D4
:040890002BDAE1225C
:10003B007800E84400600A790175A000E4F309D860
:10004B00FC7802E84404600C7905900001E4F0A30D
:04005B00D8FCD9FAFA
:0208CA00000428
:0D00060075812E1208B0E582600302000330
:1008940020F71430F6148883A88220F507E6A8838D
:1008A40075830022E280F7E49322E022758200221D
:00000001FF
