:03000000020006F5
:10005F00E4F508F509F50AF50BF50CF50DF50EF5B8
:08006F000FF510F5110200036A
:0300030002007781
:100077001202E11202C67E007F007C107D27EC4D44
:10008700600F2082050EBE00010F1CBCFF011D8002
:10009700ED758201C007C006120106D006D0078E93
:1000A700128F1390003C12034C12022580C8D28194
:1000B700D280C28122C280C281D280D28122C280F4
:1000C700D281D2802081FD22AF827E00C2808EF055
:1000D70005F07C80E4FD3392D28008A2D2ED13FDB7
:1000E700EC13FCD5F0F58F027B00EA5204EB5205C6
:1000F700EC4D24FF9281D2800EBE080040CE22AF85
:10010700828F06EEC454F0FE5306F05307F0C00783
:10011700C0061200B575824E1200CF1200C5D00678
:10012700D007740C4FF582C007C0061200CF12002B
:10013700C59000011202FFD006D00774084FF58260
:10014700C0061200CF1200C590000A1202FFD006A7
:10015700740C4EF582C0061200CF1200C590000144
:100167001202FFD00674084EF5821200CF1200C5A6
:1001770090000A1202FF0200BCAF828F06EEC45441
:10018700F0FE5306F05307F0C007C0061200B5751E
:10019700824E1200CF1200C5D006D007740D4FF55E
:1001A70082C007C0061200CF1200C59000011202DC
:1001B700FFD006D00774094FF582C0061200CF1290
:1001C70000C590000A1202FFD006740D4EF582C0DA
:1001D700061200CF1200C59000011202FFD006746C
:1001E700094EF5821200CF1200C590000A1202FFD5
:1001F7000200BCAD82AE83AFF08D828E838FF0128A
:1002070003B6FC60188C820DBD00010EC007C00646
:10021700C005120180D005D006D00780DC22AE824F
:10022700AF83758280C007C0061201069003D6759A
:10023700F0801201FAD006D0077512E87513038E05
:10024700828F83C007C006120323AC8274302CF55B
:1002570082120180D006D0077512647513008E8252
:100267008F83C007C00612032375120A7513001285
:100277000369AC8274302CF582120180D006D00756
:1002870075120A7513008E828F83C007C00612038A
:100297002375120A751300120369AC8274302CF5AA
:1002A70082120180D006D00775120A7513008E825C
:1002B7008F83120369AE8274302EF5820201807536
:1002C70082801201069003DC75F0801201FA900714
:1002D700D01202FF75820102010675820212010621
:1002E70075822812010675820C12010675820612A4
:1002F7000106758201020106AE82AF837C007D0094
:10030700C3EC9EED9F50147A797B001ABAFF011B4C
:0C031700EA4B70F70CBC00E80D80E522FA
:1003D60052504D3A2000546163686F6D65746572C2
:0103E6000016
:100323007A10E4FBFCE58225E0F582E58333F5836F
:10033300EB33FBEC33FCEB9512F5F0EC9513400635
:09034300FCABF0438201DADD227B
:06003500E478FFF6D8FD9F
:100013007900E94400601B7A009003E7780175A03A
:1000230000E493F2A308B8000205A0D9F4DAF2754C
:02003300A0FF2C
:10034C00E5828512F0A4C582C0F08513F0A4D0F02C
:10035C0025F0C5838512F0A42583F58322E512458B
:10036C001360467A01E51225E0F512E513334012CD
:10037C00F513E5829512E583951340030A80E6C3D5
:10038C00E51313F513E51213F512C3E5829512F577
:10039C00F0E58395134005F58385F082C3E51313CF
:0A03AC00F513E51213F512DAE12251
:10003B007800E84400600A790175A000E4F309D860
:10004B00FC7800E84400600C7900900001E4F0A318
:04005B00D8FCD9FAFA
:0D0006007581131203D2E58260030200032E
:1003B60020F71430F6148883A88220F507E6A88370
:1003C60075830022E280F7E49322E0227582002200
:00000001FF
