:03000000020006F5
:10005F00E4F508F509F50AF50BF50CF50DF50EF5B8
:08006F000FF510F5110200036A
:0300030002007781
:10007700900014120619AE82AD837F00C007C00638
:10008700C00512052712050CD005D006D007751636
:100097000A7517008E828D838FF0C007C006C005D2
:1000A7001200F0D005D006D007E4F512F513C3E52A
:1000B700129401E5136480948050D3E4F514F51588
:1000C700C3E51494F0E515940F500FAB14AC1574F9
:1000D700012BF514E43CF51580E6AB12AC13740163
:1000E7002BF512E43CF51380C585821885831985A5
:1000F700F01AE518451970127582011202AB9000CB
:10010700001203CA90000002046B7B007C008B0185
:100117008C02C3E99516EA95175051D2A0E4F51B56
:10012700F51CF8FAC3E894DCEA94FF501520820B1B
:10013700308208051BE4B51B02051C08B800E50A58
:1001470080E2C2A0EB2BF9EC33FAE92518F9EA357E
:1001570019F8AA1A898288838AF0E51B1205C2A3B7
:10016700E51C1205C20BBB00A50C80A27B007C001E
:1001770079007A00C3E99516EA9517502CE929F812
:10018700EA33FFE82518F8EF3519FFAE1A88828F92
:10019700838EF01207A6F8A31207A6FFE82BFBEF42
:1001A7003CFC09B900CE0A80CB8516278517288B1A
:1001B700828C8312059985821D85831E7C007D00B4
:1001C7007A007B00C3EA9516EB95175054EA2AF894
:1001D700EB33F9E82518F8E93519F9AF1A88828958
:1001E700838FF01207A6F8A31207A6F9E8C3951D97
:1001F700F8E9951EF98827892888828983C005C070
:1002070004C003C00212073CAE82AF83D002D00302
:10021700D004D005EE2CFCEF3DFD0ABA00A60B80FA
:10022700A38516278517288C828D831205991205B9
:1002370069AF827E00758201C007C0061202AB85D6
:100247001D82851E831203CAD006D0078F828E8334
:1002570002046BD281D280C28122C280C281D28045
:10026700D28122C280D281D2802081FD22AF827EBC
:1002770000C2808EF005F07C80E4FD3392D28008C6
:10028700A2D2ED13FDEC13FCD5F0F58F027B00EA4B
:100297005204EB5205EC4D24FF9281D2800EBE082A
:1002A7000040CE22AF828F06EEC454F0FE5306F014
:1002B7005307F0C007C00612025A75824E12027425
:1002C70012026AD006D007740C4FF582C007C00629
:1002D70012027412026A900001120545D006D00777
:1002E70074084FF582C00612027412026A90000A5F
:1002F700120545D006740C4EF582C0061202741220
:10030700026A900001120545D00674084EF5821264
:10031700027412026A90000A120545020261AF8256
:100327008F06EEC454F0FE5306F05307F0C007C023
:100337000612025A75824E12027412026AD006D051
:1003470007740D4FF582C007C00612027412026AC5
:10035700900001120545D006D00774094FF582C0F9
:100367000612027412026A90000A120545D006743A
:100377000D4EF582C00612027412026A9000011235
:100387000545D00674094EF58212027412026A906E
:10039700000A120545020261AD82AE83AFF08D827D
:1003A7008E838FF01207A6FC60188C820DBD0001AA
:1003B7000EC007C006C005120325D005D006D0071A
:1003C70080DC22AE82AF83758280C007C00612022E
:1003D700AB9007C675F08012039FD006D00775272C
:1003E700E87528038E828F83C007C006120599AC73
:1003F7008274302CF582120325D006D00775276446
:100407007528008E828F83C007C00612059975274D
:100417000A752800120759AC8274302CF582120332
:1004270025D006D00775270A7528008E828F83C0CE
:1004370007C00612059975270A752800120759ACD7
:100447008274302CF582120325D006D00775270A4F
:100457007528008E828F83120759AE8274302EF56D
:1004670082020325AE82AF837582C0C007C0061221
:1004770002AB9007CC75F08012039FD006D00775AA
:1004870027E87528038E828F83C007C00612059957
:10049700AC8274302CF582120325D006D00775275D
:1004A700647528008E828F83C007C0061205997570
:1004B700270A752800120759AC8274302CF582126E
:1004C7000325D006D00775270A7528008E828F83EB
:1004D700C007C00612059975270A75280012075923
:1004E700AC8274302CF582120325D006D00775270D
:1004F7000A7528008E828F83120759AE8274302EB8
:10050700F5820203257582801202AB9007D175F040
:100517008012039F9007D01205457582010202AB36
:100527007582021202AB7582281202AB75820C1219
:1005370002AB7582061202AB7582010202ABAE8274
:10054700AF837C007D00C3EC9EED9F50147A797BCE
:10055700001ABAFF011BEA4B70F70CBC00E80D80CC
:10056700E522AE82AF837D807C80EDF5F0A4FAAB07
:10057700F0B50606EBB507028015C3EE9AEF9B5060
:1005870003EC6205ECC313FC6005EC420580DB8DD0
:020597008222BE
:1007C60052504D3A200053443A2000546163686FFA
:0607D6006D657465720000
:100599007A10E4FBFCE58225E0F582E58333F583F7
:1005A900EB33FBEC33FCEB9527F5F0EC9528400693
:0905B900FCABF0438201DADD2203
:06003500E478FFF6D8FD9F
:100013007900E94400601B7A009007DE780375A03D
:1000230004E493F2A308B8000205A0D9F4DAF27548
:02003300A0FF2C
:1005C20020F71130F6138883A88220F509F6A88354
:1005D2007583002280FEF280F5F022900001740300
:1005E200F07400A3F09007DCE493FE740193FF1E05
:1005F200BEFF011FEE2403FEEF3400FF900003EE66
:10060200F0EFA3F0900001E0FEA3E0FF8E828F8363
:10061200A3A3E4F0A3F022AE82AF83900001E0F541
:10062200F0A3E045F0700BC007C0061205DDD0064E
:10063200D007EE4F600E74022EFCE43FFDC3EC9E29
:10064200ED9F50049000002274022EF51FE43FF546
:1006520020C3E51F9404E52094005006751F04751D
:100662002000900001E0FCA3E0FD7A017B00EC4D4C
:1006720070030207388C828D83E0F8A3E0F98806C4
:1006820089078C258D26EEC39525F521EF9526F554
:1006920022C3E521951FE52295205003020721740C
:1006A20004251FFEE43520FFC3E5219EE5229F407D
:1006B2004EE51F2525FEE5203526FF8E238F248556
:1006C2002382852483E8F0E9A3F074022523F8E469
:1006D2003524F98C828D83A3A3E0FEA3E0FF8882F8
:1006E2008983EEF0EFA3F08A828B83E523F0E52481
:1006F200A3F08C828D83E523F0E524A3F080148C93
:10070200828D83A3A3E0FEA3E0FF8A828B83EEF0B7
:10071200EFA3F074022CFEE43DFF8E828F832274DD
:10072200022CFEE43DFF8E028F038E828F83E0FC5B
:10073200A3E0FD02067090000022E5828527F0A466
:10074200C582C0F08528F0A4D0F025F0C5838527A6
:10075200F0A42583F58322E527452860467A01E542
:100762002725E0F527E528334012F528E58295276D
:10077200E583952840030A80E6C3E52813F528E5BA
:100782002713F527C3E5829527F5F0E583952840E1
:1007920005F58385F082C3E52813F528E52713F5CF
:0407A20027DAE1224F
:10003B007800E84400600A790175A000E4F309D860
:10004B00FC7802E84404600C7905900001E4F0A30D
:04005B00D8FCD9FAFA
:0207DC00000417
:0D0006007581281207C2E582600302000325
:1007A60020F71430F6148883A88220F507E6A8837C
:1007B60075830022E280F7E49322E022758200220C
:00000001FF
