:03000000020006F5
:10005F00E4F508F509F50AF50BF50CF50DF50EF5B8
:08006F000FF510F5110200036A
:0300030002007781
:100077001205141204F990001275F0401200C6E43C
:10008700F526F527C3E5269401E52764809480507B
:10009700E5E4F528F529C3E52894F0E529940F5000
:1000A7000FAE28AF2974012EF528E43FF52980E625
:1000B700AE26AF2774012EF526E43FF52780C585C8
:1000C700822A85832B85F02CE52A452B70127582B1
:1000D700011202989000001203B790000002045822
:1000E7007B007C00C3EB940AEC648094805051D26F
:1000F700A0E4F52DF52EF8FAC3E894DCEA94FF5056
:100107001520820B308208052DE4B52D02052E0837
:10011700B800E50A80E2C2A0EB2BF9EC33FAE92537
:100127002AF9EA352BF8AA2C898288838AF0E52DEB
:100137001205AFA3E52E1205AF0BBB00A70C80A4D9
:100147007B007C0079007A00C3E9940AEA940050A6
:100157002CE929F8EA33FFE8252AF8EF352BFFAE1B
:100167002C88828F838EF0120634F8A3120634FF90
:10017700E82BFBEF3CFC09B900CE0A80CB75310AAE
:100187007532008B828C8312058685823185833296
:100197009000CC1205CA85822F8583307C007D00B4
:1001A7007A007B00C3EA940AEB94005054EA2AF8D9
:1001B700EB33F9E8252AF8E9352BF9AF2C88828942
:1001C700838FF0120634F8A3120634F9E8C3952F8B
:1001D700F8E99530F98831893288828983C005C06A
:1001E70004C003C0021205CAAE82AF83D002D00397
:1001F700D004D005EE2CFCEF3DFD0ABA00A60B801B
:10020700A375310A7532008C828D8312058612051B
:1002170056AF828F317532009000CC1205CAAE827C
:10022700AF83758201C007C006120298852F8285A9
:1002370030831203B7D006D0078E828F830204580B
:10024700D281D280C28122C280C281D280D2812251
:10025700C280D281D2802081FD22AF827E00C280FF
:100267008EF005F07C80E4FD3392D28008A2D2EDB7
:1002770013FDEC13FCD5F0F58F027B00EA5204EB7B
:100287005205EC4D24FF9281D2800EBE080040CE6D
:1002970022AF828F06EEC454F0FE5306F05307F0E8
:1002A700C007C00612024775824E1202611202573A
:1002B700D006D007740C4FF582C007C00612026142
:1002C700120257900001120532D006D00774084F6A
:1002D700F582C00612026112025790000A12053217
:1002E700D006740C4EF582C00612026112025790B6
:1002F7000001120532D00674084EF582120261120F
:10030700025790000A12053202024EAF828F06EEA4
:10031700C454F0FE5306F05307F0C007C00612029C
:100327004775824E120261120257D006D007740D2C
:100337004FF582C007C006120261120257900001F2
:10034700120532D006D00774094FF582C006120293
:100357006112025790000A120532D006740D4EF54D
:1003670082C006120261120257900001120532D0B4
:100377000674094EF58212026112025790000A12A2
:10038700053202024EAD82AE83AFF08D828E838F2F
:10039700F0120634FC60188C820DBD00010EC007F8
:1003A700C006C005120312D005D006D00780DC2294
:1003B700AE82AF83758280C007C00612029890068E
:1003C7005475F08012038CD006D0077531E875326A
:1003D700038E828F83C007C006120586AC827430F5
:1003E7002CF582120312D006D007753164753200DE
:1003F7008E828F83C007C00612058675310A753253
:10040700001205E7AC8274302CF582120312D00675
:10041700D00775310A7532008E828F83C007C006F8
:1004270012058675310A7532001205E7AC82743001
:100437002CF582120312D006D00775310A753200E7
:100447008E828F831205E7AE8274302EF582020307
:1004570012AE82AF837582C0C007C00612029890A1
:10046700065A75F08012038CD006D0077531E875EF
:1004770032038E828F83C007C006120586AC827452
:10048700302CF582120312D006D00775316475320D
:10049700008E828F83C007C00612058675310A75E4
:1004A70032001205E7AC8274302CF582120312D0A9
:1004B70006D00775310A7532008E828F83C007C058
:1004C7000612058675310A7532001205E7AC82748B
:1004D700302CF582120312D006D00775310A753217
:1004E700008E828F831205E7AE8274302EF582026A
:1004F700031275828012029890065F75F0801203CE
:100507008C9007D01205327582010202987582021B
:1005170012029875822812029875820C1202987539
:100527008206120298758201020298AE82AF837C1E
:10053700007D00C3EC9EED9F50147A797B001ABAB8
:10054700FF011BEA4B70F70CBC00E80D80E522AEFB
:1005570082AF837D807C80EDF5F0A4FAABF0B50621
:1005670006EBB507028015C3EE9AEF9B5003EC62CA
:0F05770005ECC313FC6005EC420580DB8D82228E
:1006540052504D3A200053443A2000546163686F6D
:060664006D657465720073
:100586007A10E4FBFCE58225E0F582E58333F5830A
:10059600EB33FBEC33FCEB9531F5F0EC9532400692
:0905A600FCABF0438201DADD2216
:06003500E478FFF6D8FD9F
:100013007900E94400601B7A0090066A780175A0B4
:1000230000E493F2A308B8000205A0D9F4DAF2754C
:02003300A0FF2C
:1005AF0020F71130F6138883A88220F509F6A88367
:1005BF007583002280FEF280F5F022E5828531F00E
:1005CF00A4C582C0F08532F0A4D0F025F0C5838594
:1005DF0031F0A42583F58322E531453260467A0157
:1005EF00E53125E0F531E532334012F532E58295FC
:1005FF0031E583953240030A80E6C3E53213F532C5
:10060F00E53113F531C3E5829531F5F0E583953288
:10061F004005F58385F082C3E53213F532E53113DA
:05062F00F531DAE122C3
:10003B007800E84400600A790175A000E4F309D860
:10004B00FC7800E84400600C7900900001E4F0A318
:04005B00D8FCD9FAFA
:0D000600758132120650E58260030200038E
:1006340020F71430F6148883A88220F507E6A883EF
:1006440075830022E280F7E49322E022758200227F
:00000001FF
