:03000000020006F5
:10005F00E4F508F509F50AF50BF50CF50DF50EF5B8
:08006F000FF510F5110200036A
:0300030002007781
:100077001203151202FA7E007F007C007D00D2A0D9
:1000870075120074FD251240408C018D028E148F6D
:100097001578007B00C3E894DCEB94FF501C2082AA
:1000A7000D30820F0514E4B514090515800509B94B
:1000B70000010A08B800DE0B80DB89048A05AE144C
:1000C700AF15E51204F51280BAC2A0758201C00708
:1000D700C00612013AD006D0078E828F83120259CA
:1000E7008094D281D280C28122C280C281D280D242
:1000F7008122C280D281D2802081FD22AF827E0000
:10010700C2808EF005F07C80E4FD3392D28008A295
:10011700D2ED13FDEC13FCD5F0F58F027B00EA520C
:1001270004EB5205EC4D24FF9281D2800EBE0800ED
:1001370040CE22AF828F06EEC454F0FE5306F05332
:1001470007F0C007C0061200E975824E12010312BC
:1001570000F9D006D007740C4FF582C007C006120D
:1001670001031200F9900001120333D006D007747F
:10017700084FF582C0061201031200F990000A1217
:100187000333D006740C4EF582C006120103120029
:10019700F9900001120333D00674084EF58212015C
:1001A700031200F990000A1203330200F0AF828FA6
:1001B70006EEC454F0FE5306F05307F0C007C0061E
:1001C7001200E975824E1201031200F9D006D0071A
:1001D700740D4FF582C007C0061201031200F99093
:1001E7000001120333D006D00774094FF582C00609
:1001F7001201031200F990000A120333D006740D9E
:100207004EF582C0061201031200F9900001120395
:1002170033D00674094EF5821201031200F99000DB
:100227000A1203330200F0AD82AE83AFF08D828EE7
:10023700838FF01203CDFC60188C820DBD00010E78
:10024700C007C006C0051201B4D005D006D007808C
:10025700DC22AE82AF83758280C007C00612013AE6
:100267009003ED75F08012022ED006D0077516E8C0
:100277007517038E828F83C007C006120357AC829F
:1002870074302CF5821201B4D006D0077516647548
:1002970017008E828F83C007C00612035775160A90
:1002A700751700120380AC8274302CF5821201B4EA
:1002B700D006D00775160A7517008E828F83C00780
:1002C700C00612035775160A751700120380AC8211
:1002D70074302CF5821201B4D006D00775160A7552
:1002E70017008E828F83120380AE8274302EF582C0
:1002F7000201B475828012013A9003F375F08012FF
:10030700022E9007D012033375820102013A7582DB
:100317000212013A75822812013A75820C12013ACB
:1003270075820612013A75820102013AAE82AF83E5
:100337007C007D00C3EC9EED9F50147A797B001AF8
:10034700BAFF011BEA4B70F70CBC00E80D80E522F1
:1003ED0052504D3A2000546163686F6D65746572AB
:0103FD0000FF
:100357007A10E4FBFCE58225E0F582E58333F5833B
:10036700EB33FBEC33FCEB9516F5F0EC95174006F9
:09037700FCABF0438201DADD2247
:06003500E478FFF6D8FD9F
:100013007900E94400601B7A009003FE780175A023
:1000230000E493F2A308B8000205A0D9F4DAF2754C
:02003300A0FF2C
:10038000E516451760467A01E51625E0F516E517EE
:10039000334012F517E5829516E583951740030A59
:1003A00080E6C3E51713F517E51613F516C3E582C6
:1003B0009516F5F0E58395174005F58385F082C322
:0D03C000E51713F517E51613F516DAE1221F
:10003B007800E84400600A790175A000E4F309D860
:10004B00FC7800E84400600C7900900001E4F0A318
:04005B00D8FCD9FAFA
:0D0006007581171203E9E582600302000313
:1003CD0020F71430F6148883A88220F507E6A88359
:1003DD0075830022E280F7E49322E02275820022E9
:00000001FF
