:03000000020006F5
:10005F00E4F508F509F50AF50BF50CF50DF50EF5B8
:08006F000FF510F5110200036A
:0300030002007781
:100077001202E81202CDD2A07E007F007C107D27FD
:10008700EC4D60122082083082050EBE00010F1C65
:10009700BCFF011D80EAC2A0758201C007C006121D
:1000A700010DD006D0078E128F1390003C12035318
:1000B70012022C80C1D281D280C28122C280C28129
:1000C700D280D28122C280D281D2802081FD22AF0C
:1000D700827E00C2808EF005F07C80E4FD3392D2F0
:1000E7008008A2D2ED13FDEC13FCD5F0F58F027B4F
:1000F70000EA5204EB5205EC4D24FF9281D2800EA8
:10010700BE080040CE22AF828F06EEC454F0FE53E5
:1001170006F05307F0C007C0061200BC75824E12E6
:1001270000D61200CCD006D007740C4FF582C0075A
:10013700C0061200D61200CC900001120306D006AA
:10014700D00774084FF582C0061200D61200CC9073
:10015700000A120306D006740C4EF582C006120080
:10016700D61200CC900001120306D00674084EF593
:10017700821200D61200CC90000A1203060200C3B6
:10018700AF828F06EEC454F0FE5306F05307F0C05B
:1001970007C0061200BC75824E1200D61200CCD0E2
:1001A70006D007740D4FF582C007C0061200D6129D
:1001B70000CC900001120306D006D00774094FF552
:1001C70082C0061200D61200CC90000A120306D095
:1001D70006740D4EF582C0061200D61200CC9000B0
:1001E70001120306D00674094EF5821200D61200DA
:1001F700CC90000A1203060200C3AD82AE83AFF0B3
:100207008D828E838FF01203BDFC60188C820DBD2A
:1002170000010EC007C006C005120187D005D00631
:10022700D00780DC22AE82AF83758280C007C0060C
:1002370012010D9003DD75F080120201D006D00780
:100247007512E87513038E828F83C007C0061203E9
:100257002AAC8274302CF582120187D006D007753C
:1002670012647513008E828F83C007C00612032A9B
:1002770075120A751300120370AC8274302CF58264
:10028700120187D006D00775120A7513008E828F68
:1002970083C007C00612032A75120A7513001203DA
:1002A70070AC8274302CF582120187D006D00775A6
:1002B700120A7513008E828F83120370AE82743018
:1002C7002EF58202018775828012010D9003E37576
:1002D700F0801202019007D0120306758201020115
:1002E7000D75820212010D75822812010D75820C9F
:1002F70012010D75820612010D75820102010DAE04
:1003070082AF837C007D00C3EC9EED9F50147A7909
:100317007B001ABAFF011BEA4B70F70CBC00E80D13
:0303270080E5224C
:1003DD0052504D3A2000546163686F6D65746572BB
:0103ED00000F
:10032A007A10E4FBFCE58225E0F582E58333F58368
:10033A00EB33FBEC33FCEB9512F5F0EC951340062E
:09034A00FCABF0438201DADD2274
:06003500E478FFF6D8FD9F
:100013007900E94400601B7A009003EE780175A033
:1000230000E493F2A308B8000205A0D9F4DAF2754C
:02003300A0FF2C
:10035300E5828512F0A4C582C0F08513F0A4D0F025
:1003630025F0C5838512F0A42583F58322E5124584
:100373001360467A01E51225E0F512E513334012C6
:10038300F513E5829512E583951340030A80E6C3CE
:10039300E51313F513E51213F512C3E5829512F570
:1003A300F0E58395134005F58385F082C3E51313C8
:0A03B300F513E51213F512DAE1224A
:10003B007800E84400600A790175A000E4F309D860
:10004B00FC7800E84400600C7900900001E4F0A318
:04005B00D8FCD9FAFA
:0D0006007581131203D9E582600302000327
:1003BD0020F71430F6148883A88220F507E6A88369
:1003CD0075830022E280F7E49322E02275820022F9
:00000001FF
