:03000000020006F5
:10005F00E4F508F509F50AF50BF50CF50DF50EF5B8
:08006F000FF510F5110200036A
:0300030002007781
:1000770012033912031E75820112015E90000A12E3
:1000870000B212027DE4F512F513C3E5129402E5FE
:10009700136480948050DFE4F514F515AE14AF15A2
:1000A70074012EF514E43FF51580F1AE82AF83E4B9
:1000B700F516F517FAFB8A008B01C3E89EE99F50F6
:1000C70038D2A0780079007C007D00C3EC94DCED89
:1000D70094FF501220820830820508B80001090CED
:1000E700BC00E80D80E5C2A0E82516F516E935172E
:1000F700F5170ABA00C00B80BD8E188F19851682B6
:1001070085178302037BD281D280C28122C280C23B
:1001170081D280D28122C280D281D2802081FD22E9
:10012700AF827E00C2808EF005F07C80E4FD3392C2
:10013700D28008A2D2ED13FDEC13FCD5F0F58F02A7
:100147007B00EA5204EB5205EC4D24FF9281D280EA
:100157000EBE080040CE22AF828F06EEC454F0FEDA
:100167005306F05307F0C007C00612010D75824E03
:1001770012012712011DD006D007740C4FF582C05B
:1001870007C00612012712011D900001120357D064
:1001970006D00774084FF582C00612012712011D09
:1001A70090000A120357D006740C4EF582C006124F
:1001B700012712011D900001120357D00674084E43
:1001C700F58212012712011D90000A12035702013E
:1001D70014AF828F06EEC454F0FE5306F05307F0B7
:1001E700C007C00612010D75824E12012712011DAC
:1001F700D006D007740D4FF582C007C0061201273D
:1002070012011D900001120357D006D00774094F41
:10021700F582C00612012712011D90000A1203572A
:10022700D006740D4EF582C00612012712011D90EB
:100237000001120357D00674094EF58212012712E6
:10024700011D90000A120357020114AD82AE83AF5D
:10025700F08D828E838FF01203F1FC60188C820D73
:10026700BD00010EC007C006C0051201D8D005D0D9
:1002770006D00780DC22AE82AF83758280C007C0BC
:100287000612015E90041175F080120252D006D05A
:10029700077518E87519038E828F83C007C0061289
:1002A700037BAC8274302CF5821201D8D006D007BC
:1002B7007518647519008E828F83C007C0061203F4
:1002C7007B75180A7519001203A4AC8274302CF5DB
:1002D700821201D8D006D00775180A7519008E82C8
:1002E7008F83C007C00612037B75180A75190012A1
:1002F70003A4AC8274302CF5821201D8D006D00743
:1003070075180A7519008E828F831203A4AE827442
:10031700302EF5820201D875828012015E90041793
:1003270075F0801202529007D012035775820102AE
:10033700015E75820212015E75822812015E758266
:100347000C12015E75820612015E75820102015E62
:10035700AE82AF837C007D00C3EC9EED9F50147A84
:10036700797B001ABAFF011BEA4B70F70CBC00E857
:040377000D80E522EE
:1004110052504D3A2000546163686F6D6574657286
:0104210000DA
:10037B007A10E4FBFCE58225E0F582E58333F58317
:10038B00EB33FBEC33FCEB9518F5F0EC95194006D1
:09039B00FCABF0438201DADD2223
:06003500E478FFF6D8FD9F
:100013007900E94400601B7A00900422780175A0FE
:1000230000E493F2A308B8000205A0D9F4DAF2754C
:02003300A0FF2C
:1003A400E518451960467A01E51825E0F518E519C0
:1003B400334012F519E5829518E583951940030A2F
:1003C40080E6C3E51913F519E51813F518C3E5829A
:1003D4009518F5F0E58395194005F58385F082C3FA
:0D03E400E51913F519E51813F518DAE122F3
:10003B007800E84400600A790175A000E4F309D860
:10004B00FC7800E84400600C7900900001E4F0A318
:04005B00D8FCD9FAFA
:0D00060075811912040DE5826003020003EC
:1003F10020F71430F6148883A88220F507E6A88335
:1004010075830022E280F7E49322E02275820022C4
:00000001FF
