:03000000020006F5
:10005F00E4F508F509F50AF50BF50CF50DF50EF5B8
:08006F000FF510F5110200036A
:0300030002007781
:100077001204FB1204E090001275F0401200C6E46F
:10008700F526F527C3E5269401E52764809480507B
:10009700E5E4F528F529C3E52894F0E529940F5000
:1000A7000FAE28AF2974012EF528E43FF52980E625
:1000B700AE26AF2774012EF526E43FF52780C585C8
:1000C700822A85832B85F02CE52A452B70127582B1
:1000D7000112027F90000012039E90000002043F6D
:1000E7007B007C00C3EB940AEC648094805051D26F
:1000F700A0E4F52DF52EF8FAC3E894DCEA94FF5056
:100107001520820B308208052DE4B52D02052E0837
:10011700B800E50A80E2C2A0EB2BF9EC33FAE92537
:100127002AF9EA352BF8AA2C898288838AF0E52DEB
:10013700120596A3E52E1205960BBB00A70C80A40B
:100147007B007C0079007A00C3E9940AEA940050A6
:100157002CE929F8EA33FFE8252AF8EF352BFFAE1B
:100167002C88828F838EF012061BF8A312061BFFC2
:10017700E82BFBEF3CFC09B900CE0A80CB75310AAE
:100187007532008B828C8312056D85822F858330B3
:100197007C007D007A007B00C3EA940AEB94005050
:1001A70054EA2AF8EB33F9E8252AF8E9352BF9AFB1
:1001B7002C888289838FF012061BF8A312061BF97D
:1001C700E8C3952FF8E99530F98831893288828913
:1001D70083C005C004C003C0021205B1AE82AF835D
:1001E700D002D003D004D005EE2CFCEF3DFD0ABAB7
:1001F70000A60B80A375310A7532008C828D83129D
:10020700056D12053DAF827E00758201C007C006ED
:1002170012027F852F8285308312039ED006D00776
:100227008F828E8302043FD281D280C28122C28014
:10023700C281D280D28122C280D281D2802081FD28
:1002470022AF827E00C2808EF005F07C80E4FD3311
:1002570092D28008A2D2ED13FDEC13FCD5F0F58FF6
:10026700027B00EA5204EB5205EC4D24FF9281D247
:10027700800EBE080040CE22AF828F06EEC454F037
:10028700FE5306F05307F0C007C00612022E758210
:100297004E12024812023ED006D007740C4FF58268
:1002A700C007C00612024812023E9000011205194B
:1002B700D006D00774084FF582C006120248120212
:1002C7003E90000A120519D006740C4EF582C0063E
:1002D70012024812023E900001120519D006740856
:1002E7004EF58212024812023E90000A12051902C8
:1002F7000235AF828F06EEC454F0FE5306F0530763
:10030700F0C007C00612022E75824E120248120272
:100317003ED006D007740D4FF582C007C006120203
:100327004812023E900001120519D006D007740941
:100337004FF582C00612024812023E90000A1205CB
:1003470019D006740D4EF582C00612024812023EFD
:10035700900001120519D00674094EF58212024861
:1003670012023E90000A120519020235AD82AE83D1
:10037700AFF08D828E838FF012061BFC60188C8283
:100387000DBD00010EC007C006C0051202F9D00559
:10039700D006D00780DC22AE82AF83758280C0078B
:1003A700C00612027F90063B75F080120373D006D9
:1003B700D0077531E87532038E828F83C007C00678
:1003C70012056DAC8274302CF5821202F9D006D07A
:1003D700077531647532008E828F83C007C006129D
:1003E700056D75310A7532001205CEAC8274302C5A
:1003F700F5821202F9D006D00775310A7532008EE0
:10040700828F83C007C00612056D75310A753200E9
:100417001205CEAC8274302CF5821202F9D006D0C8
:100427000775310A7532008E828F831205CEAE8230
:1004370074302EF5820202F9AE82AF837582C0C096
:1004470007C00612027F90064175F080120373D031
:1004570006D0077531E87532038E828F83C007C0D7
:100467000612056DAC8274302CF5821202F9D006A3
:10047700D0077531647532008E828F83C007C0063E
:1004870012056D75310A7532001205CEAC827430D3
:100497002CF5821202F9D006D00775310A753200A1
:1004A7008E828F83C007C00612056D75310A7532BB
:1004B700001205CEAC8274302CF5821202F9D006F8
:1004C700D00775310A7532008E828F831205CEAE42
:1004D7008274302EF5820202F975828012027F90B3
:1004E700064675F0801203739007D01205197582BE
:1004F7000102027F75820212027F75822812027F33
:1005070075820C12027F75820612027F75820102C4
:10051700027FAE82AF837C007D00C3EC9EED9F50CF
:10052700147A797B001ABAFF011BEA4B70F70CBCEF
:1005370000E80D80E522AE82AF837D807C80EDF5FB
:10054700F0A4FAABF0B50606EBB507028015C3EECB
:100557009AEF9B5003EC6205ECC313FC6005EC4279
:060567000580DB8D8222FD
:10063B0052504D3A200053443A2000546163686F86
:06064B006D65746572008C
:10056D007A10E4FBFCE58225E0F582E58333F58323
:10057D00EB33FBEC33FCEB9531F5F0EC95324006AB
:09058D00FCABF0438201DADD222F
:06003500E478FFF6D8FD9F
:100013007900E94400601B7A00900651780175A0CD
:1000230000E493F2A308B8000205A0D9F4DAF2754C
:02003300A0FF2C
:1005960020F71130F6138883A88220F509F6A88380
:1005A6007583002280FEF280F5F022E5828531F027
:1005B600A4C582C0F08532F0A4D0F025F0C58385AD
:1005C60031F0A42583F58322E531453260467A0170
:1005D600E53125E0F531E532334012F532E5829515
:1005E60031E583953240030A80E6C3E53213F532DE
:1005F600E53113F531C3E5829531F5F0E5839532A2
:100606004005F58385F082C3E53213F532E53113F3
:05061600F531DAE122DC
:10003B007800E84400600A790175A000E4F309D860
:10004B00FC7800E84400600C7900900001E4F0A318
:04005B00D8FCD9FAFA
:0D000600758132120637E5826003020003A7
:10061B0020F71430F6148883A88220F507E6A88308
:10062B0075830022E280F7E49322E0227582002298
:00000001FF
