:03000000020006F5
:10005F00E4F508F509F50AF50BF50CF50DF50EF5B8
:08006F000FF510F5110200036A
:0300030002007781
:100077001202FE1202E37F017DFF7EFFD2A07B000A
:100087007C0079037A00EF60292082083082050B13
:10009700BB00010CE94A6016ED4E60071DBDFF016C
:1000A7001E80E319B9FF011A7DFF7EFF80D87F000C
:1000B70080D4C2A0758201C004C003120123D003FB
:1000C700D0048B828C8312024280ABD281D280C251
:1000D7008122C280C281D280D28122C280D281D2C3
:1000E700802081FD22AF827E00C2808EF005F07CE9
:1000F70080E4FD3392D28008A2D2ED13FDEC13FC0D
:10010700D5F0F58F027B00EA5204EB5205EC4D2443
:10011700FF9281D2800EBE080040CE22AF828F06AA
:10012700EEC454F0FE5306F05307F0C007C00612A2
:1001370000D275824E1200EC1200E2D006D007748E
:100147000C4FF582C007C0061200EC1200E29000C7
:100157000112031CD006D00774084FF582C006129F
:1001670000EC1200E290000A12031CD006740C4E39
:10017700F582C0061200EC1200E290000112031C87
:10018700D00674084EF5821200EC1200E290000AC5
:1001970012031C0200D9AF828F06EEC454F0FE533F
:1001A70006F05307F0C007C0061200D275824E1240
:1001B70000EC1200E2D006D007740D4FF582C0079D
:1001C700C0061200EC1200E290000112031CD006D8
:1001D700D00774094FF582C0061200EC1200E290B6
:1001E700000A12031CD006740D4EF582C0061200D9
:1001F700EC1200E290000112031CD00674094EF5C0
:10020700821200EC1200E290000A12031C0200D9CD
:10021700AD82AE83AFF08D828E838FF01203B6FC72
:1002270060188C820DBD00010EC007C006C0051204
:10023700019DD005D006D00780DC22AE82AF837542
:100247008280C007C0061201239003D675F0801282
:100257000217D006D0077512E87513038E828F83B5
:10026700C007C006120340AC8274302CF58212011D
:100277009DD006D0077512647513008E828F83C0D8
:1002870007C00612034075120A751300120369AC02
:100297008274302CF58212019DD006D00775120AA0
:1002A7007513008E828F83C007C006120340751234
:1002B7000A751300120369AC8274302CF58212019F
:1002C7009DD006D00775120A7513008E828F831290
:1002D7000369AE8274302EF58202019D7582801209
:1002E70001239003DC75F0801202179007D01203E8
:1002F7001C7582010201237582021201237582286F
:1003070012012375820C12012375820612012375CF
:100317008201020123AE82AF837C007D00C3EC9E85
:10032700ED9F50147A797B001ABAFF011BEA4B70D4
:09033700F70CBC00E80D80E52282
:1003D60052504D3A2000546163686F6D65746572C2
:0103E6000016
:100340007A10E4FBFCE58225E0F582E58333F58352
:10035000EB33FBEC33FCEB9512F5F0EC9513400618
:09036000FCABF0438201DADD225E
:06003500E478FFF6D8FD9F
:100013007900E94400601B7A009003E7780175A03A
:1000230000E493F2A308B8000205A0D9F4DAF2754C
:02003300A0FF2C
:10036900E512451360467A01E51225E0F512E51319
:10037900334012F513E5829512E583951340030A7C
:1003890080E6C3E51313F513E51213F512C3E582ED
:100399009512F5F0E58395134005F58385F082C341
:0D03A900E51313F513E51213F512DAE12246
:10003B007800E84400600A790175A000E4F309D860
:10004B00FC7800E84400600C7900900001E4F0A318
:04005B00D8FCD9FAFA
:0D0006007581131203D2E58260030200032E
:1003B60020F71430F6148883A88220F507E6A88370
:1003C60075830022E280F7E49322E0227582002200
:00000001FF
